:020000040000FA
:10000000800400207D0100008101000083010000C8
:1000100000000000000000000000000000000000E0
:10002000000000000000000000000000850100004A
:1000300000000000000000008701000089010000AE
:100040008B010000C90E00008B01000000000000C1
:10005000990B0000000000000000000000000000FC
:10006000000000008B010000000000000000000004
:10007000000000008B01000000000000C11600001D
:1000800069160000000000008B0100000000000065
:100090008B010000000000000000000000000000D4
:1000A0008B0100008B010000000000000000000038
:1000B0000000000000000000000000008B010000B4
:1000C00000F002F800F04AF80CA030C808382418F4
:1000D0002D18671EA246AB4654465D46AC4201D180
:1000E00000F03CF87E460F3EB6460FCC0126334268
:1000F00000D0FB1A3343A246AB4618476C2F0000D2
:100100008C2F000000000000103A02D378C878C19C
:10011000FAD8520701D330C830C101D504680C6049
:100120007047000000000000002300240025002686
:10013000103A01D378C1FBD8520700D330C100D5A3
:100140000B60704710B5642902D100F073F810BD40
:10015000002010BD1FB51FBD10B510BD00F0A2FCE2
:100160001146FFF7F7FF01F0D7FB00F0BAFC03B42C
:10017000FFF7F2FF03BC01F0E9FA00000648004770
:10018000FEE7FEE7FEE7FEE7FEE7FEE70348044979
:10019000044A054B70470000C100000080020020A7
:1001A0008004002080030020800300200FB4054954
:1001B00010B503AA029800F0FFFB10BC08BC04B005
:1001C00018470000D0010020F8B50E460446002074
:1001D00020622046E1688847002829D0252802D0DF
:1001E0006268A16820E0E168204600278847050092
:1001F0001ED028464138192802D80127FF02203591
:100200003246204627602946FFF79CFF002808D089
:10021000012804D0F61DF608F6000836D9E7361D89
:10022000D7E762682846A1689047206A401CCFE75C
:10023000206AF8BDF7B5002575291068009914A645
:1002400011D0C046C046002802DA404211A608E09C
:10025000009909688A0701D50FA602E0490704D56D
:100260000EA6012501E0C046C046009F00242437A9
:1002700004E000F0B5FB30313955641C0028F8D19A
:100280002B4632462146009800F03DFBFEBD0000A3
:10029000000000002D0000002B00000020000000E6
:1002A00010B5044603E001F0C3FA401C08D02078E2
:1002B0000549641C0028F6D10A2001F0B9FA10BDE6
:1002C0000020C04310BD0000D001002070477047DF
:1002D000704700000246C80FC00781434B0030B58D
:1002E0004B405B009B0D20D01923DB06C91801236E
:1002F0001B05994220DB0324A40704251346AB40C9
:100300000BD3002B04D1EB0613409B00E34204D433
:1003100001246407002312195941FF231B05994248
:100320000BD2C9000143500F09E0CB0204D50143B1
:100330000803024305D0054830BDFF21C905084325
:1003400030BD084607210905884330BD0000C07F45
:10035000F0B50C46871A9C410D46861A9D4103D282
:10036000C01BA141D21963410D0D1F0DC94EEC1BDD
:10037000AE435CD07F057F0D0026002F51D02D05A8
:10038000AC46A943DD020123ED0A1B051D432023D2
:100390001B1B24D41746E740381871412F46E7400D
:1003A000CC199D402818314661410C0D27D161447C
:1003B0009A4013D50023401C594152000ED14008E9
:1003C000400001224B005205D34207D305204007CD
:1003D000C14201D5B04900E0B0493046F0BD6B00E4
:1003E000002A00D001229A181F23203C1B1B01D594
:1003F000002302E0E540281871410C0DD7D00124FC
:1004000024050919C407CD0740084908E40F28430B
:100410006144002CD5D00024401C61419A40D0D1C9
:10042000CDE76A05520DD9D1C90FC907D5E79C4D53
:100430004E00002801D0012400E0002434195F00A0
:10044000002A01D0012600E00026BE19954FAC42DB
:100450000CD8AE420AD8B44206D001256D05EC4254
:10046000BCD010461946F0BD9942FCD00020394658
:10047000F0BDF0B51FB40C460F46811A9F412546CA
:10048000861A9D4106D20125ED076F40401ABC41F6
:1004900052187B41210D1E0D8D1BAC467D4D8D43A9
:1004A0007ED075056D0D7CD00D05AE46AC431B03AB
:1004B0001B0B794D52429D41202366469B1B14D352
:1004C0001746F740381800260090744160462F46C2
:1004D0000741E41900989D402818664116D47146DA
:1004E00071189A4025D5012320E093182A466A41C5
:1004F0005200002B00D0521C1E23203E9B1B002BC1
:1005000061DD3541EE1728186641E8D500187641BF
:100510005B1C9A4000D3401C4B05F3181524E340A4
:1005200010D3002B52D071467118D30FC01802D3CC
:10053000491C05B0F0BD0123DB079A42F9D1400800
:100540004000F6E701225205B21801D1002853D02D
:100550000123CC0ADB029943891E002A08D1020C30
:1005600003D0020C0004103902E0024600202039BA
:100570000023550B05D112020823550B01D152015E
:100580000D23550C01D112011B1DD50C01D1920078
:100590009B1C150D01D152005B1C2025EE1A01E0B9
:1005A0002CE022E00546F54015439840CA1AE107C1
:1005B00069181305C918002ABBDA03204007081878
:1005C000C10FC9070FE071466118B2E7F107400893
:1005D0000843711071444A000CD001235B059A4214
:1005E000A7D2C90FC9070020A3E74905490D26D1A5
:1005F000002001E00028F4D100219AE7284D660090
:10060000002801D0012100E0002171185F00002ABC
:1006100001D0012600E00026BE19224FA94210D8C1
:10062000AE420ED8B14208D001256D05E94206D090
:100630001946A802414010467BE79C4201D0214662
:1006400077E70020394674E710B50C465C4005D5C5
:100650000124E4076340FFF70CFF10BDFFF778FEAD
:1006600010BD30B40C465C4004D50124E40763405F
:1006700030BC6DE630BCFCE670B50124E407614097
:100680000D465D4002D4FFF763FE70BD6340FFF787
:10069000F0FE70BDFF0700000000F0FF0000F07FDB
:1006A0000000E0FF0000F87F0121C9050123411887
:1006B00042001B06D3185B0E0AD0C1100722D206D7
:1006C000891840075242D14201D55200891870471B
:1006D000090208D50146002A03D0C10FC90700202E
:1006E000704710467047420202D00020024970470E
:1006F000072109050143F4E70000F87FF0B5FF2565
:100700002D04C609C209FF2704462E400137CB0934
:100710003E4348402A402B400746002A6BD0002B1E
:1007200069D0AA4267D0AB4265D0002800DA3246D1
:100730000125ED0529432C4309022002090AD21A9A
:100740004B0C7F24E31A434C000A7C44E35C7D2479
:100750002404121914145B00A218884201D3521CFD
:1007600000E0400049420C465C4324115C43DB013D
:100770006415E318040A5C43C502200D0C4644438B
:100780006419250A5D432303EC0C0D466543000301
:100790000019EB184C42A34201D35B18401CD4054E
:1007A0002018002B07D05B00C91804D3401C002977
:1007B00001D1400840003F2189048A4209D3002A20
:1007C00008DC1106090F04D0032149074018C00FA7
:1007D000C007F0BD01224100120689187F2252068F
:1007E0009142F6D205214907C84201D59010F0BDCB
:1007F000FF20C005F0BD002F00DA32461648AA429D
:1008000007D2AB4205D21902090E17D0F80FC00764
:10081000F0BDFF2563002D06AB42F9D84900A9427F
:10082000F6D8AB4201D1A942F2D0A94201D10021B0
:1008300001E061004908D0050843F0BD1102090E2E
:10084000FBD0FF200243D005F0BD0A46014610460A
:1008500054E700009A2800000000C07F10B5014650
:100860009E240002CA15A307002A02D01843002ABA
:1008700004DBA21A002A0CDDD04010BD1206120EB5
:1008800001D140004008A21A03D4D04040420028C1
:10089000F3DDFF2248001206904201D9002010BD6E
:1008A000C817C043584010BD1F22030C02D10F22AD
:1008B00000041CD0030E01D10002083A030F01D13D
:1008C0000001121F830F01D18000921E002801DB5E
:1008D0004000521ED20551180212511819229040A0
:1008E00004D3491C002801D1490849000846704733
:1008F000C10FC90700D04042012292071143D3E73C
:1009000001218907D0E7FFB504460D4681B02430A8
:1009100000902168880604D51022E0699143216087
:1009200000E00120A84201DD471B00E000270498F9
:10093000A1697A191018081AA0612078C00602D49B
:100940002046C046C046002608E003986268A168B9
:10095000805D9047206A401C761C20620498864285
:10096000F3DB2078C0060AD52046C046C04606E024
:100970006268A16830209047206A401C2062384697
:100980007F1E0028F4DC07E000986268A168405DE3
:100990009047206A401C206228466D1E0028F3DC28
:1009A0002046C046C0462078000602D5022005B089
:1009B000F0BD0120FBE70000084B70B50D467B44FD
:1009C00000F027F80446284600F036F8002802D048
:1009D0000020C04370BD204670BD00006F0E0000B7
:1009E00001468008081A02091018020A1018020CA1
:1009F0001018C008820012185200891A01E0401C29
:100A00000A390A29FBD2704701694A1C0261087839
:100A1000704700B58FB002910021059105490193FF
:100A200079440391114604906846FFF7CDFB0FB05F
:100A300000BD0000E5FFFFFFC0688021084070474F
:100A400010B5FF231B0644009C421DD84C009C425D
:100A50001AD80346124A0B4307D4401A02D3EFF3C5
:100A6000008010BDEFF3008010BD081A03D3EFF330
:100A70000080904305E0EFF3008001219043C90717
:100A8000084380F3008810BD0D231B041A4204D0D4
:100A90001146002000F02DF810BD00F041F810BD07
:100AA00000000090754600F043F8AE460500694628
:100AB0005346C008C000854618B020B5FFF766FB56
:100AC00060BCB64600260027C0C5C0C5C0C5C0C5AD
:100AD000C0C5C0C5C0C5C0C5403D490849008D4618
:100AE000704710B50446C046C0462046FFF73FFB9E
:100AF00010BDC80212D54803400F002804D0C80317
:100B0000C043012188407047EFF3008000010009D5
:100B100003210907084380F30088704700207047CD
:100B200010B5024800F008F810BD00000000C07FBA
:100B3000004870470001002010B50C461107090F4E
:100B4000092904D00A290AD008290CD104E0114649
:100B50000820FFF7CEFF06E0510606D501E051065A
:100B600001D50120C007214610BDD10607D50101DE
:100B70000909CC084907000E0006044309E0410FAB
:100B800020024907000A0143200E00061D22D14120
:100B900001430846E7E7000006480068C0B209289C
:100BA00003D00A2804D1054800E003480121017060
:100BB0007047C046205000404502002046020020F9
:100BC000B0B50A78032313400B4A84580B4D2540D7
:100BD000EB18A92424061B198350072212064B6820
:100BE00013401124240205599543EA1802510019B3
:100BF00049780161B0BDC04608080000FCFFFF0055
:100C0000811E091F00BFFCD2704710B5002A0FD00B
:100C100091235B01C3180020DC692405240F05D053
:100C20000C5C1C60401C8242F6D1104680B210BDA4
:100C3000002080B210BD70B50A780C231A40012440
:100C4000240305196E689E43B2186A60497807222A
:100C50001140035993435918015170BDF0B5684ACA
:100C60008218294BC318087920280DD000281DD1DF
:100C70000C68641E5460D56E244C25408835D566BA
:100C80001646703688251DE00C68641E5460D46ECC
:100C90001E4D2C401E4EA419D466146F2C40A4196E
:100CA0001467012465071B4C16460BE00C686408AA
:100CB0005460D66E154C26400525ED017619D66692
:100CC00016467036376827402F433760D46A4E4D3A
:100CD0002C40D462146B2C4014630024D46414653B
:100CE0008F24E443D56F2540D5671D6825401D60DE
:100CF00049790143BD2008401168074B0B40C018DB
:100D0000801C1060F0BDC0468418000024F93FF03C
:100D100001040000FFFFFFCF4000FFCFB0B54A68DD
:100D2000364BC250364A80180A78222A58D8930087
:100D300001A4E3589F46C046D70D0000E10D000016
:100D4000D70D0000E10D0000E10D0000E10D0000F5
:100D5000E10D0000E10D0000E10D0000E10D0000DB
:100D6000E10D0000E10D0000E10D0000E10D0000CB
:100D7000E10D0000E10D0000C50D0000E10D0000D7
:100D8000C50D0000E10D0000E10D0000E10D0000C7
:100D9000E10D0000E10D0000E10D0000E10D00009B
:100DA000E10D0000E10D0000E10D0000E10D00008B
:100DB000E10D0000E10D0000C50D0000E10D000097
:100DC000C50D000003231B0704689C4301235B0738
:100DD000E318036004E003231B0704689C430460DA
:100DE0000B8AC360CB68074C1C40C36A064D1D408C
:100DF0002B19C362097A11430160B0BD08180000C5
:100E000004180000777702008888FDFF10B50723DB
:100E10009B04194092008018024A84589C43611830
:100E2000815010BD3018000010B5029CA4000019BC
:100E300011431943014A815010BDC04650180000AB
:100E400092008018014A81507047C0461018000077
:100E500010B50122120383180C789C604B788350E4
:100E60008978014A815010BD0C110000B0B51122E3
:100E7000120283580124A34383500B888C781C43AF
:100E80008B882343094C1C408358094D1D4063192E
:100E900083508B79CC791C43097A21437E231940F6
:100EA000801842689A4351184160B0BD186700002D
:100EB000E798FDFF10B50122120383180C789C609F
:100EC0004978815010BD0000F0B583B088480068B3
:100ED000012800D081E087480168890503D586494B
:100EE0000A6A521C0A620168090503D582494A6CE4
:100EF000521C4A648149097800296ED1804E3368BA
:100F00002621804A06E0E41A351F2D68641961180D
:100F1000914206D21C4633689C42FCD0F3D9E41AB5
:100F2000F5E70168490358D5012101918904336827
:100F30002622754F06E0E41A351F2D686419A218A1
:100F4000BA4206D21C4633689C42FCD0F3D9E41A5C
:100F5000F5E702680A4234D0019A91036B480160B8
:100F60006B4800780028009139D06A4802706A48BE
:100F700002686A4800680025694F09E02046029926
:100F800001F0AEFE0246681C092D0546204660D2DF
:100F900002920021044601F069FE002810D1316858
:100FA000262006E0521A331F1B68D2181018B842C8
:100FB000E4D20A4631688A42FCD0F3D9521AF5E7E6
:100FC000FEE700680842019A07D151480178491CA0
:100FD0000170C8B2029088425BD003B0F0BD5248A5
:100FE00002684E480068029000254D4F08E00298C4
:100FF000114601F075FE0246681C092D054610D207
:101000003168262006E05B1A341F24681B19181863
:10101000B842ECD20B4631688B42FCD0F3D95B1A54
:10102000F5E740491046FFF769FB3F490860316822
:101030002620354C06E0521A331F1B68D2181018B0
:10104000A04221D20A4631688A42FCD0F3D9521A12
:10105000F5E72A480199017032491046FFF74EFB27
:101060002D49086031682620274C06E0521A331FAC
:101070001B68D2181018A04206D20A4631688A426C
:10108000FCD0F3D9521AF5E700982049086003B064
:10109000F0BD91030022254B04E0521CD0B2029C0B
:1010A000A0429AD2194801603768262506E0E41B61
:1010B000301F0068241865199D4206D23C463768E7
:1010C000BC42FCD0F3D9E41BF5E710480160376857
:1010D000262506E0E01B341F2468041965199D428B
:1010E000DBD23C463768BC42FCD0F3D9E41BF5E7C1
:1010F0003011404080130A400400002060010020AD
:1011000018E000E00071020000F82401B0120A406B
:1011100060020020560200202C020020480200201D
:1011200000C40900000020412802002000D4300043
:10113000002141628162C162016341637047F0B581
:1011400083B0054608460192114601F0E5FE0646C9
:10115000029068683F21090601F086FE296A01F0C5
:1011600083FE0446A96A304601F0BAFD01462046D6
:1011700001F07AFE0146686A01F0B2FD0646686237
:10118000EF69394601F088FD04462968029801F0AC
:101190006BFE0090002C06D1AF693046394601F055
:1011A00070FD002801D16F623E46286B019F3946D1
:1011B00001F0B2FEA96801F057FE0446E86200980B
:1011C000314601F08DFD0146204601F089FD0446BF
:1011D00068636E69314601F05FFD002806D12E6913
:1011E0002046314601F04DFD002801D16E633446A2
:1011F0002F630298A862204603B0F0BDF0B583B01B
:1012000002920C4605464549204601F05DFD074621
:101210004349204601F064FD0646002F00D12646D2
:101220004049304601F038FD07463F49304601F05D
:1012300057FD002F00D13046029901F06DFE0746A0
:10124000364901F041FD04463846354901F048FD74
:101250000646002C00D13E463046324901F01CFDC6
:1012600004463046304901F03BFD0746002C00D1D2
:101270003746A96A384601F033FD044668683F21C5
:10128000090601F0F1FD296A01F0EEFD214601F0A9
:10129000EBFD0146686A01F023FD06466862296895
:1012A0000197384601F0E0FD0446EF6930463946C3
:1012B00001F0F2FC002806D1AF693046394601F052
:1012C000E0FC002801D16F623E46286B029901F0D4
:1012D00023FEA96801F0C8FD0746E86220463146B2
:1012E00001F0FEFC0146384601F0FAFC0446686352
:1012F0006E69314601F0D0FC002806D12E692046E7
:10130000314601F0BEFC002801D16E6334460298DC
:1013100028630198A862204603B0F0BD000034C3E2
:101320000000B443000034430000B4C3B0B51C480F
:10133000822383660124A2061A490A60C366E20674
:101340000A60194A951C05604560640605682543D6
:101350000560456825434560C365531C836581234B
:101360008363124C846443618361C361036242629C
:101370008262C2620263084630380D4A02600A6027
:10138000552080040B490860102008610A48016A52
:101390000A4A11430162016811430160B0BDC046B1
:1013A00004804240D0120A40810004008100050000
:1013B000E041000090130A4028100A40001E04007B
:1013C00080B511481149FFF736FC0320410210484F
:1013D00002680A43026001210A02036813430360A2
:1013E000002242611F224262826B07239A4382637A
:1013F0001A02836B93438363826A042313438362D9
:10140000826A0A43826280BD00000F4028300000DB
:1014100000120F4006480168032291430160012138
:10142000090342680A434260024800210160704794
:1014300000010B4008030B400448042101601F21F8
:1014400041600021816005210160704710E000E0EB
:1014500010B5084C08492046FFF7FAFC074920461A
:10146000FFF75CFC06480168012211430160054852
:10147000026010BD004008402A30000030300000FB
:10148000285008400851084010B5174C174920460D
:10149000FFF710FD16492046FFF7E8FC0321CA03B9
:1014A00014480368934303600269134B13401A33D3
:1014B000036142690A433C218A4342614268012137
:1014C0000A4043688B439A1842608A020B4B1C689F
:1014D00014431C60FF221206094B1C6894431C60D5
:1014E00002680A43026010BD0080104044300000D2
:1014F00046300000009110400000FFFF289010408F
:101500000CE400E010B512481249FFF759FB1248ED
:101510004168124B0B400322110459184160816845
:101520000F4B0B4001210C061B1983600D4B02244D
:101530001C605A60B823436112020B4B1C6A1443AF
:101540001C621C6814431C6002680A43026010BDE0
:10155000004000405030000000510040FEFFECFF12
:10156000F8FFE0E0805100402850004080B500F0D6
:1015700011F8FFF7DBFEFFF74DFF00F035F8FFF73E
:1015800067FFFFF71DFFFFF77FFFFFF7BBFFFFF7C9
:1015900053FF80BD70B50C480C4941600C4A516046
:1015A0000C4B59600C4C61600C4D69600C4E7160C5
:1015B0000C490160116019602160296031601020C0
:1015C000FFF71EFB70BDC04600080A40030000B1D3
:1015D000006808400048084000080F40008810409C
:1015E0000048004001000026F0B581B01A4C1B49AC
:1015F0002046FFF72DFC1A492046FFF72FFB7D20E0
:1016000046010025204631462A46FFF719FC009581
:10161000204629462A462B46FFF706FC2046294647
:101620002A46FFF7F3FB0127204631463A46FFF7EB
:1016300007FC0097204629462A462B46FFF7F4FB75
:10164000204629463A46FFF7E1FB0648876003211A
:10165000016001B0F0BDC046006008405830000095
:101660005C3000000071084010B510480068C0B23E
:1016700001281AD1012080030D4A13780D49002B4F
:1016800009D04B239B000C4C2468E3180B4C2360BF
:10169000002313700860084A1368084C24689C42B1
:1016A00001D108611368581C106010BD205008401B
:1016B0005502002090120A405C020020C801002060
:1016C000B0B51C480068C0B20B2825D11A4805687F
:1016D000ECB2204600F062F81848017802290FD0D9
:1016E00001291AD0002917D1402C15D116490978A3
:1016F000002911D1124900220A7001210170B0BDE8
:10170000232C09D10E4909780E4A0A23535400218B
:1017100001700D4801210170B0BD2A2C02D10221B7
:101720000170B0BD06480178064A5554491C017045
:10173000B0BDC0462090104024911040CC01002044
:10174000CD010020620100206101002070470000EF
:1017500080B5FFF70BFF01200104064A1160064B1C
:101760001960C003106018600220186003A0FEF723
:1017700097FD80BD80E200E000E100E0426F617211
:101780006420496E6974205B5B202A2A204C434BFD
:101790004642202A2A205D5D0D00000010B5124C43
:1017A000227812498854501C20700A78552A17D183
:1017B000C0B20B2816D34878532811D188790C4A27
:1017C0001070C8795070108800B2FFF791F80721A7
:1017D000C90601F049FB074901F046FB06490860CC
:1017E0000020207010BDC0463C02002030020020C6
:1017F000240200200000344348020020B0B57D21BF
:101800000902414309480368262206E0E41A051F3D
:101810002D686419A2188A4206D21C4603689C42AD
:10182000FCD0F3D9E41AF5E7B0BDC04618E000E0FB
:1018300003490A68D207FCD1C2B28A617047C04628
:101840000891104070B5314C0559314E2E40490079
:101850008919491C0151001941682E4C0C4019048A
:101860000919C91D4160002B08D00021C46A240752
:10187000FCD0C4685454491C9942F7D1002070BD73
:10188000F0B581B01C460D46064611461A46FFF7D4
:10189000BCF9012003031C490B601C4AB21896686E
:1018A000B60606D40E68771E0F60002EF7D101B081
:1018B000F0BD1668164F37406D007D1915605568EC
:1018C000144E2E402404A419E41D54600B60946847
:1018D000640607D50C68651E0D60002CF7D1022048
:1018E00001B0F0BD9468A407E1D40B609068800655
:1018F00007D40868431E0B600028F7D1032001B00D
:10190000F0BD002001B0F0BD00000020101200006A
:1019100000F8FFFFF8FF00F000B587B0FFF718FFF1
:1019200006ACDD202070F34E4C25012730462946B9
:1019300022463B46FFF7A4FF30462946224605973C
:101940003B46FFF77FFFEC48FFF7F2FBEB48FFF762
:10195000EFFBEB48FFF7ECFBEAA0FEF7A1FC7D20D4
:10196000800004904B20C00002903720400101907D
:10197000E64BE74EE74FE8480078002828D0E748D4
:1019800000780028E64DE74C01D100F0E6FE00218A
:101990000391E2480170E4480078012831D1E3481E
:1019A000017800291DD0E2480078012924D10028BF
:1019B000059822D00020DF490870012131700146CE
:1019C00001F02CF8D14BD8480078D849097814E0B8
:1019D0000020014601F022F8CE4FCC4BD04D00F054
:1019E000BCFE0120D34908700021D34A1162D34ABA
:1019F0001268D34F3A6000E00598491CCB4A117039
:101A0000C44F022812D1C94800780128CB4900D11F
:101A1000ACE1002800D0E9E1C648059A0270002038
:101A2000C54A10620868C6490860DFE1032800D093
:101A30006FE2BE4800780028C14F34D1BF4800682B
:101A40001E46FEF731FEBF4ABF4BFEF7FDFDFEF717
:101A500041FC01F0E7F801463860206801F05CFACB
:101A60003D4627460599CC07A043AA4901F01FF936
:101A700000280DD1B548314600F0D0FF38682968FC
:101A800001F04AFAA043A34901F006F90028F1D178
:101A90000020014600F0C2FFA4490878401C0870ED
:101AA0003C462F469A4EC1B2012919D1A148059949
:101AB00001700024A04804623170A0480068FEF75D
:101AC000F3FDA04AA24BFEF7BFFDFEF703FC01F0B9
:101AD000A9F838608A4908638C62924C9348007870
:101AE000C0B202289B4D40D1059D357093480068D7
:101AF000994901F0F5F801F095F801463860206841
:101B000001F00AFAEC07A0433D46824901F0CFF804
:101B10000028924F8D4E0FD131466431384600F087
:101B20007DFF80480068296801F0F6F9A0437949F3
:101B300001F0B2F80028EFD10498014600F06EFFE2
:101B40006E48FFF7F5FA7A4800780028754C704E19
:101B50002F46804D09D00020764908707049059ABB
:101B60000A70754908622868386070480078032850
:101B700040D17B49097800293CD000206D4908708C
:101B8000674908706C4908620598307006462868F5
:101B9000FEF78AFD6B4A734BFEF756FDFEF79AFB84
:101BA00001F040F801463860206801F0B5F93D4683
:101BB0002746F407A043574901F079F80028634EFF
:101BC0000DD15248314600F029FF3868296801F0EC
:101BD000A3F9A0434F4901F05FF80028F1D100209C
:101BE000014600F01BFF0420504908702F46484E64
:101BF000584D01E0042819D10024494804704E488A
:101C000004624C480599017031702868FEF74CFD5C
:101C10004C4A544BFEF718FDFEF75CFB01F002F84E
:101C20003860374908638C6240480078052841D104
:101C3000059C34702868374E314601F051F800F0A9
:101C4000F1FF014638603D46364F386801F064F9CF
:101C5000E407A043314601F02AF800282B4E3B4F01
:101C60000FD138466430314600F0D8FE2D48006868
:101C7000296801F051F9A043264901F00DF8002828
:101C8000EFD100242046214600F0C8FE1B48FFF794
:101C90004FFA2748007800281D4E0BD025480470C5
:101CA0001F4805990170244804622F480170234899
:101CB000006828601D4800780628164F00D0FAE218
:101CC000274909780029114B154D00D1F5E2002470
:101CD000184804702C70184804620598307020462B
:101CE000214600F09BFE0B4F084B1F4804700F4825
:101CF0000078E2E200000F40540000208C00002039
:101D0000C400002073746172740D00004AFCFFFF70
:101D10005502002000004040560200204C000020E8
:101D200070020020480200206002002044020020CF
:101D30003E0200203D020020040000202C02002072
:101D400078020020E17A14AE47E14340B603000078
:101D50004761434028020020000040C03EFEFFFFD4
:101D60004C020020476143C054020020ED48FFF7B9
:101D7000DFF9ED4FED49EE4BEE480078002835D005
:101D80000868ED4E314600F0ABFF246800F04AFFD2
:101D90000146204600F075FF0028029DE74F13D151
:101DA00029466431384600F039FEE0480068314683
:101DB00000F096FFE2490C6800F034FF014620462F
:101DC00000F082FF0028EBD10020DE490870DE4DD4
:101DD000059B2B70DD490862DD4A1370DD48006801
:101DE000DD4B1860D24BD64C1646CF4FDB480078FF
:101DF000022812D1DA49097800290ED00320D74EE3
:101E0000307004990846C83800F008FE1420FFF727
:101E1000F5FCC54FC64B3078CD4E032813D1D149C0
:101E2000097800290FD1C748059A02700020287050
:101E3000C64908623270CC498862C6480068C64A02
:101E40001060086342E0042840D1B648FFF770F9FB
:101E5000B54FB74BB7480078002837D0BD48006869
:101E6000B54900F03DFF2646246800F0DBFE014640
:101E7000204600F006FF0028029DB04F12D12946EF
:101E80006431384600F0CAFDB2480068AA4900F043
:101E900027FF346800F0C6FE0146204600F014FF1C
:101EA0000028ECD1A84D059B2B70A94A1370002087
:101EB000A4490870A5490862AC4803709B480068B3
:101EC000A54B18609A4B34461646974FA3480078A6
:101ED000052816D1A2490978002912D00024994872
:101EE00004702C7099480462059830702046214691
:101EF00000F094FD8C4F8E4B9C480470904C97489A
:101F00000078401C9549087099480078032800D152
:101F10008FE5042800D0D9E1904800780028954D3D
:101F200057D100208849087086490870874908629F
:101F300005983070284632308049C8318E4A116089
:101F40005060784C2068FEF7AFFB8C4A8C4BFEF754
:101F50007BFBFEF7BFF92060A068FEF7A5FB894A6E
:101F6000894BFEF771FBFEF7B5F9A0606F4800687A
:101F7000FEF79AFB854A864BFEF766FBFEF7AAF949
:101F800000F050FE0146744D28606D4E306800F040
:101F9000C3FF0599CC07A04363490F4600F087FEB5
:101FA00000280DD17348624900F038FD3068296877
:101FB00000F0B2FFA043394600F06EFE0028F1D1D8
:101FC0000020014600F02AFD64490878401C087092
:101FD0005F4EC1B201291AD15A48059901700024F7
:101FE0005A480462317051480068FEF75DFB674A49
:101FF000674BFEF729FBFEF76DF900F013FE4A4F21
:1020000055490860584908638C6254480078C0B24A
:102010000228504D42D1059C3470444800685D4907
:102020003D4600F05DFE00F0FDFD01464A4F386080
:10203000434E306800F070FFE407A043294600F0EB
:1020400036FE0028029D3D4E0FD1314664312846B0
:1020500000F0E4FC3A480068396800F05DFFA043F6
:10206000314900F019FE0028EFD10498014600F034
:10207000D5FC2C48FFF75CF82E4800780028344E39
:10208000344D294F0AD000202E4908702E49059A58
:102090000A702E49086228682F4908602F48007886
:1020A00003287BD12E490978002977D000202549C3
:1020B00008702549087025490862059C3470286815
:1020C0003E46FEF7F1FA314A334BFEF7BDFAFEF712
:1020D00001F900F0A7FD01461F4D2860184F386830
:1020E00000F01AFFE407A043314600F0E0FD0028AD
:1020F0000DD10F481F4900F091FC3868296800F0A5
:102100000BFFA043314600F0C7FD0028F1D10020AD
:10211000014600F083FC0420104908702F460C4E45
:102120000C4D3EE08C000020000040402C020020BE
:102130004AFCFFFF3E02002000002041DC050000B9
:10214000480200203D020020700200200400002010
:1021500055020020280200207802002044020020BE
:102160004C02002074020020C40000205402002011
:1021700060020020B60300006402002033333333D2
:102180003333D33F666666666666F63FE17A14AE21
:1021900047614340000080BF476143C00428E74FC8
:1021A00019D10024E6480470E6480462E64805991F
:1021B000017031702868FEF777FAE44AE44BFEF7C5
:1021C00043FAFEF787F800F02DFD3860E149086317
:1021D0008C62E1480078052840D1059C347028685D
:1021E0007F21C90500F07CFD00F01CFD0146386030
:1021F000DA4E306800F090FEE407A043D84F39462D
:1022000000F055FD0028029DD64E11D13046C83051
:102210002946323100F002FCD0480068C7490968FD
:1022200000F07AFEA043394600F036FD0028EDD1DB
:10223000CD48FEF77DFFCD4800780028CC4EBF4A40
:102240000CD00020C0490870BD49059B0B70BD49EA
:102250000862C8480370C84800681060BE48057826
:10226000062DBE4C35D1C54800780028C44BBC4F64
:102270006BD033460026B44A1670B1490E70B14F88
:102280003E62059C1C70BF4D2878401C2870C0B26F
:10229000042821D100201070087038621C7001469B
:1022A0001E4600F0BBFBB64BB2480470AA48057846
:1022B000AA4CAB4F49E0B24BA14D401CA649087057
:1022C000B1480078A54C042800D125E6052845D062
:1022D00043E2AB4BA24F38E00096A7480068FEF7F8
:1022E000E3F99A4AA94BFEF7AFF9FDF7F3FF00F0C7
:1022F00099FC0146914D2860984F386800F00CFE1B
:10230000E407A043964F394600F0D1FC0028A04EC8
:102310000ED130469A4900F081FB90480068296848
:1023200000F0FAFDA043394600F0B6FC0028F0D1D9
:10233000009D2846294600F071FB059895490870D4
:10234000854805708E4B854C894E681C8249087003
:102350008D4800787A4D052800D0FEE17E4800784F
:102360000028059A3FD100207749087028707549E8
:1023700008623270804800683D461746FEF794F9BF
:10238000724A854BFEF760F9FDF7A4FF00F04AFCA6
:1023900001466A480160206800F0BEFD2646FC0741
:1023A000A0432F46294600F082FC0028784D0ED12C
:1023B0002846734900F032FB30686049096800F034
:1023C000ABFDA043394600F067FC0028F0D10020A7
:1023D000014600F023FB60490878401C0870584D06
:1023E0003446634E059AC1B201291BD1564802708A
:1023F00000245448046232705F480068FEF754F9C4
:10240000664A674BFEF720F9FDF764FF00F00AFC0F
:10241000059A534F494908604E4908638C624F4CF6
:102420004D480078C0B2022841D13270524800684D
:102430005C493D46164600F053FC00F0F3FB0146B4
:102440003E4F3860206800F067FDF407A04329463E
:1024500000F02DFC00284E4E534D0ED1284631463B
:1024600000F0DCFA3D480068396800F055FDA043F3
:102470003B4900F011FC0028F0D10498014600F01F
:10248000CDFA3948FEF754FE3848007800282C4D24
:10249000324C374E324F059A09D000202A49087035
:1024A0002A702849086241480068244908602A487F
:1024B000007803287ED13149097800297AD0224852
:1024C0000399017029701F48016232703748006813
:1024D0003E461546FEF7E8F8304A354BFEF7B4F8AD
:1024E000FDF7F8FE00F09EFB0146144801602068ED
:1024F00000F012FD2746EC07A043314600F0D7FB61
:102500000028234D0ED11E48294600F087FA38686E
:102510000A49096800F000FDA043314600F0BCFB09
:102520000028F0D10020014600F078FA04200A4982
:102530000870034D014F0E4E059A3EE078020020D0
:1025400070020020040000203D020020E17A14AE59
:10255000476143C0C400002044020020480200201C
:1025600000004040DC0500008C0000203E020020FE
:1025700055020020540200202C0200204C020020B2
:102580004AFCFFFF470200206002002047614340F1
:10259000B60300004C0000204761444048E17A1433
:1025A000AE474440000080BF3EFEFFFF28020020EF
:1025B000AE4744C00428FE4F1FD100242C70FA48B7
:1025C0000462F74802703270FD480068FEF76CF84C
:1025D000E74AE84BFEF738F8FDF77CFE00F022FBF7
:1025E0003860E74908638C62FEF738F90146FCA0C1
:1025F000FDF7DCFD059AE8480078052845D13270E2
:10260000EF4800687F21C905144600F069FB00F01F
:1026100009FB01463860E84E306800F07DFCE407B5
:10262000A043EB4F394600F042FB0028D54DD74E72
:1026300011D1284664303146C83900F0EFF9DE4840
:102640000068DB49096800F067FCA043394600F0E8
:1026500023FB0028EDD100242046214600F0DEF9BE
:10266000C648FEF765FDCD4800780028D34DCD4E15
:10267000CF49059A09D0CA4804702A70CA48046232
:10268000D1480270C94800680860C3480478062C25
:1026900025D1CC4909780029BB4BCD4F59D0C04931
:1026A000039808702870C04C20623270CA481346E4
:1026B00002460078401C1070C0B2042811D10020DE
:1026C000087028702062337001461C4600F0A6F99D
:1026D000BF4FAD4BBC480470AF48047839E0AA4BFB
:1026E00036E0B24800683D461C46FDF7DDFFB74ABC
:1026F000BA4BFDF7A9FFFDF7EDFD00F093FA014697
:10270000AB4F3860AC4E306800F006FCE407A043E5
:10271000294600F0CCFA00289A4D0DD128469A4956
:1027200000F07CF93068396800F0F6FBA043A84956
:1027300000F0B2FA0028F1D1039C2046214600F0B7
:102740006DF9934805990170934804708E4B9B4D29
:102750009F4F601C90490870924E2878002800D145
:1027600098E04C2106AA012483482346FFF76AF823
:10277000974F854B002800D08CE006A8007800F029
:1027800099F923214843FEF7B3F8024600217B4D17
:1027900028460391FEF7D3FC686BFEF75FF8934978
:1027A00009687C4A1278042A814F15D1904D2A6815
:1027B00013460B438F4B1B6807D09342029D0CD3EB
:1027C0008A49039A0A60114607E00499591829605A
:1027D00080494968854A1160029D874A12687D4B8D
:1027E0005B689A18511A0A1A844B1B68D21A081887
:1027F000C11A104600F012F96F480068396800F0FD
:102800008BFB00F00FFAE407A0437D4900F039FA92
:1028100000282DD16F484068401978490860664803
:102820000068396800F078FB00F0FCF9A0437549B6
:1028300000F027FA00281BD14C2106AC01254E4898
:1028400022462B46FEF7FEFF002811D12078FF28F4
:102850000ED14F4805705B480570039C2046214609
:1028600000F0DCF86148046064480460604804607B
:10287000654D2C680021204600F0F8F9002804D1AD
:102880002046624900F02CFA28601420FEF7B6FFBB
:102890003D4B4F4F42480078002801D1FFF76BF8BD
:1028A0004548046800252046294600F0DFF9002845
:1028B0003F483D4F29D1016831482246FEF79EFC32
:1028C0005349098800290AD0481C81B204292946A5
:1028D000384B00D001464E480180284600E0354B79
:1028E0003C490968019A89184A4A12688C1A1946A3
:1028F00000F0BAFAFDF7B2FF2218211A283110466B
:1029000000F08CF81420FEF779FF4C2106AA012470
:1029100019482346FEF796FF386A810937290AD3FA
:102920001C490978042906D12A490968049A5118D2
:102930003239384A116006A9374A9042124B244F67
:1029400001D2FFF718F80878FF2801D1FFF713F834
:10295000124804702F4805602846294600F05EF8AA
:102960001B4F094B0A48047029480480FFF703F8FD
:1029700014AE47E17A9443C000000F408C00002061
:10298000C4000020B60300004AFCFFFF3EFEFFFF2C
:102990004C00002060020020440200203E02002083
:1029A0003D02002055020020040000202C020020DF
:1029B0007802002000002041480200207002002020
:1029C000280200204C02002054020020E17A14AEBC
:1029D000000040406402002047020020476144405C
:1029E000676F3A2025640D0A00000000580200209D
:1029F0006C0200205C0200205000002040020020F9
:102A00000000A04100007041FC0000200AD763BF15
:102A1000720200205002002098080000B0B50C4659
:102A20000146054D284600F009F824352846214680
:102A300000F004F8B0BDC04604000020B0B5044664
:102A4000007C002800D049421848012906DB226892
:102A5000026062680261208B081805E0626802600B
:102A600022680261608B401AFDF742FF01466569EA
:102A7000284600F0F9F9FDF7F1FE0146E08B8142AE
:102A800003DBA08B814200DC0846FDF731FF0146E5
:102A9000284600F0E9F9FDF7E1FEC043E1680918B6
:102AA000227A0348FEF7CCF9B0BDC04690120A4026
:102AB00000600840FF2141404A1E00207F2A00D9C3
:102AC00087E052007A449288520097447F00860043
:102AD0008A008E0099009200990096009900990052
:102AE00099009A009900990099009E009900990018
:102AF000990099009900990099009900990099000E
:102B000099009900990099009900A00099009900F6
:102B100099009900990099009900990099009900ED
:102B200099009900990099009900A20099009900D4
:102B300099009900990099009900990099009900CD
:102B400099009900990099009900A40099009900B2
:102B500099009900990099009900990099009900AD
:102B6000990099009900990099009900990099009D
:102B7000990099009900990099009900990099008D
:102B800099009900990099009900A6009900990070
:102B9000990099009900990099009900990099006D
:102BA000990099009900990099009900990099005D
:102BB000990099009900990099009900990099004D
:102BC00099009900990099009900A8001D20C04320
:102BD0007047C02914D11C2070471D20C043001D20
:102BE00070471D20C043801C70471D20C0430A3021
:102BF00070471D20C043401D70471D20C043173043
:102C000070471D20C04314307047072070471420C0
:102C100070470A2070471A207047192070471E20FD
:102C20007047000070B505460C4900F04DF80646A7
:102C30000B49284600F054F80446002E00D12C46DB
:102C40000849204600F028F805460749204600F0CC
:102C500047F8002D00D1204670BDC046000034C3A7
:102C60000000B443000034430000B4C310B500F0CA
:102C70007DF8EFF30080400001D5012010BD002059
:102C800010BD10B500F09CF8EFF30080800001D576
:102C9000012010BD002010BD10B500F091F8EFF339
:102CA00000804000800F012800D0002010BD10B52A
:102CB00000F0B0F8EFF300804000800F012801D051
:102CC000012010BD002010BD10B500F0A3F8EFF3F7
:102CD0000080800001D4012010BD002010BD000044
:102CE00070B50125ED0704004C4020D4441A01D2F0
:102CF000001B0919C60D4B00F2B2FF2A29D01B0E8A
:102D00002CD000020C0228432C43D31ADC400519B6
:102D100010D2280A02D3401C6D0611D0761EF6058B
:102D20008019FF2A00DA70BDC00DC00570BD694072
:102D300000F0F8F801200543C541521C761CE8E775
:102D400064089C40C90161408900E7D10124A04387
:102D5000E4E71B0E440200D0034870BD002AFCD1FA
:102D6000C00FC00770BD00BF0000C07F0123DB059E
:102D700002000A430DD4DA4203D49A4207D48842AF
:102D80007047D84214D4D94212D488427047804246
:102D90007047DA4203D59A42F9D5814270475B0009
:102DA0004200DA4204D24A00DA4201D2814270473C
:102DB00010B5024AFDF744FE10BD00BF0900120421
:102DC0000123DB0502000A430DD4DA4203D49A4200
:102DD00007D488427047D84214D4D94212D48842CA
:102DE000704780427047DA4203D59A42F9D5814252
:102DF00070475B004200DA4204D24A00DA4201D254
:102E00008142704710B5024AFDF71AFE10BD00BF9F
:102E1000090013040123DB0502000A430DD4DA4242
:102E200003D49A4207D488427047D84214D4D94276
:102E300012D48842704780427047DA4203D59A42E2
:102E4000F9D5814270475B004200DA4204D24A0061
:102E5000DA4201D28142704710B5024AFDF7F0FD17
:102E600010BD00BF0900160470B5420064414B005C
:102E70005C41120E39D01B0E38D0FF2A3CD0FF2BFC
:102E80003AD0D2187F3A40024902400A490A45180E
:102E9000ED0106004E43000A090A48430104731A73
:102EA0004019190C4318990F04D05B0801214907F8
:102EB0005B1A521CD80904D3401CF50301D19D06AE
:102EC00007D0FF2A08D2D50506D0E40720434019D1
:102ED00070BD0125A843F4E7002A01DCE00770BDBE
:102EE0002402FF202043C00570BD1B0EFF2A03D023
:102EF000FF2B01D0E00770BDFF2636064500B54226
:102F000006D84D00B54203D8D218FF2A00D0E7E713
:102F1000004870BD0000C07F70B50125ED070400BA
:102F20004C4022D4441A02D26C40001B0919C60D31
:102F30004B00F2B2FF2A4BD01B0E50D000020C0205
:102F4000A8432C43D31ADC40051B05D5AD0019D38B
:102F50006D08761E521E37D0F605280A01D2801958
:102F600070BD70416D0603D070BD6940FFF7BEFEB5
:102F70009C4009026140490001D0401E70BD0124FF
:102F8000A04370BD6D081DD001202B0C01D12D0474
:102F900010302B0E01D12D0208302B0F01D12D0145
:102FA000001DAB0F01D1AD00801CEB0F01D16D00F6
:102FB000401C361A121A6D00680AF5054019012ADC
:102FC00002DB70BD002070BDC036300AC00770BD86
:102FD0001B0E440201D1FF2B00D1024870BD002A14
:102FE000F0D070BD0000C07F818283848586878891
:102FF000898B8C8D8E8F919293959697999A9C9DA3
:103000009FA0A2A3A5A7A8AAACAEB0B2B3B5B7B90A
:10301000BCBEC0C2C5C7C9CCCED1D4D7D9DCDFE2D3
:10302000E6E9ECF0F3F7FAFE0800080727000000D5
:10303000020000006300000001000000000000002A
:103040000000000004000000180000000030000034
:10305000010500000000000308000000A00F0000B0
:103060000001000000000000883000000000002087
:10307000000100000801000088310000000100206C
:10308000800300002801000000A0000020000000D4
:103090004000000000000000A00F00000100000040
:1030A0000000803F000000009F0F000000000000B3
:1030B000800000000001000001000000A00F0000DF
:1030C000000000000000803F000000009F0F000093
:1030D0000000000001000000140500006666663F65
:1030E000000000000000003F0000000000000000A1
:1030F00000F079450080EDC40000C84300000000E6
:1031000000000000000000000000000000000000BF
:10311000000000000000C03FCDCCCC3D9A99D93FC3
:103120000000000000C05AC50000FA440080EDC451
:103130000000C84300000000000000000000000084
:103140000000000000000000000000000000A0409F
:1031500000000000000080400000000000A08CC5BE
:1031600000803B45000096C300009643000000002D
:10317000000000000000000000000000000000004F
:083180000000000000003443D0
:04000005000000C136
:00000001FF
